:020000000C945E
:1000020033000C9460000C9400000C9400000C94DB
:1000120000000C9400000C9400000C9400000C945E
:1000220000000C9400000C9400000C9400000C944E
:1000320000000C9400000C9400000C9400000C943E
:1000420000000C9400000C9400000C9400000C942E
:100052000000000080C002000400540002006001A1
:1000620056000000F894EE27ECBBF1E0FBBFEBBFBB
:10007200E5BF8DE0A2E0BB27ED938A95E9F780E02A
:1000820094E0A0E6ED930197E9F7E8E5F0E08591C9
:100092009591009761F0A591B59105901590BF01DA
:1000A200F00105900D920197E1F7FB01F0CFEFE52A
:1000B200EDBFE4E0EEBFC0E6D1E00C94DF000A92AF
:1000C2001A92FA926A937A938A939A93AA93BA9318
:1000D200EA93FA93EFB7EA93E6B3EF704E2EF0E0AD
:1000E200309711F4E0E359C0E130A0E0FA0711F4CF
:1000F200E1E353C0E230A0E0FA0711F4E2E34DC0BD
:10010200E330A0E0FA0711F4E3E347C0E430A0E0F3
:10011200FA0711F4E4E341C0E530A0E0FA0711F474
:10012200E5E33BC0E630A0E0FA0711F4E6E335C0B0
:10013200E730A0E0FA0711F4E7E32FC0E830A0E0CF
:10014200FA0711F4E8E329C0E930A0E0FA0711F454
:10015200E9E323C0EA30A0E0FA0711F4E1E41DC0AC
:10016200EB30A0E0FA0711F4E2E417C0EC30A0E0B3
:10017200FA0711F4E3E411C0ED30A0E0FA0711F43C
:10018200E4E40BC0EE30A0E0FA0711F4E5E405C0A8
:10019200EF30A0E0FA0711F4E6E45E2EA52D5BD065
:1001A200E991EFBFF991E991B991A9919991899159
:1001B20079916991F990199009901895E0E0E7BB5F
:1001C200EFEFE8BBE4BBE0E0E5BBEBB7E064EBBF1D
:1001D200E3E0E5BFE0E0E4BFE0E4EABFA0E14FD046
:1001E2007894FFCFFFCFAA93E5B3EF70AE2FE881EB
:1001F200E07FEA2BE5BB8BE18A95F1F7AA9A8BE1C6
:100202008A95F1F7AA988BE18A95F1F761C0AA93D2
:10021200A881E9DFE881E295E883A881E4DF88EC40
:1002220090E00197F1F754C0AA93E881F0E0E05A18
:10023200FE4FE081A981AE0FEADF798068802296C5
:100242000895A2E047D0ACE0E2DFA1E043D0E0E0D5
:100252006E2E7E2E0895AA93A881AA3011F07914E9
:1002620040F0E0E0EA936394A62DDEDFA881AA3095
:1002720079F17394A89AA881CADFA89829C0AA9391
:10028200E4B3E06FE4BBA29AA09AA19AAA98A898B4
:10029200A9989880E881E058E0936201E881E054EF
:1002A200E0936301A4E1B0E00E94770118D017D077
:1002B20016D0A0E298DF80E991E00197F1F7A8E279
:1002C200A6DFA4E0A4DFA5E8A2DFA6E0A0DFB9DFF5
:1002D200219608959CDFA3E0B0E00C947701A0E39F
:1002E20082DF80E991E00197F1F70895109639F0E5
:1002F200A89580EA9FE00197F1F71197C9F7089551
:00000001FF
